:020000040800F2
:1000000000280020B51C00086119000869190008C3
:100010007119000879190008811900080000000012
:100020000000000000000000000000008919000826
:100030009519000800000000A1190008AD1900087A
:10004000FD1C0008FD1C0008FD1C0008FD1C00082C
:10005000FD1C0008FD1C0008FD1C0008FD1C00081C
:10006000FD1C0008FD1C0008FD1C0008FD1C00080C
:10007000FD1C0008FD1C0008FD1C0008FD1C0008FC
:10008000FD1C0008FD1C0008FD1C0008FD1C0008EC
:10009000FD1C0008FD1C0008FD1C0008FD1C0008DC
:1000A000FD1C0008FD1C0008FD1C0008FD1C0008CC
:1000B000B9190008FD1C000800000000FD1C000824
:1000C000FD1C00080000000000000000FD1C0008EE
:1000D00000000000FD1C0008FD1C000800000000DE
:1000E000FD1C0008FD1C0008FD1C000800000000AD
:1000F0000000000000000000000000000000000000
:0C01000000000000000000005FF808F1A3
:10010C0010B5054C237833B9044B13B10448AFF345
:10011C0000800123237010BD480000200000000067
:10012C003433000808B5034B1BB103490348AFF344
:10013C00008008BD000000004C0000203433000893
:10014C0080B582B000AF78607B68032B70D801A2B9
:10015C0052F823F071010008A3010008D501000832
:10016C000702000800224FF48051344802F0C5F811
:10017C0001224FF40051314802F0BFF801224FF434
:10018C0080412E4802F0B9F801224FF400412B486F
:10019C0002F0B3F84DE001224FF48051274802F0F1
:1001AC00ACF800224FF40051244802F0A6F80122CA
:1001BC004FF48041214802F0A0F801224FF4004195
:1001CC001E4802F09AF834E001224FF480511B488B
:1001DC0002F093F801224FF40051184802F08DF808
:1001EC0000224FF48041154802F087F801224FF4A9
:1001FC000041124802F081F81BE001224FF48051BB
:10020C000E4802F07AF801224FF400510B4802F02C
:10021C0074F801224FF48041084802F06EF8002275
:10022C004FF40041054802F068F800237B6000E0C1
:10023C0000BF00BF0837BD4680BD00BF00080140AD
:10024C0080B582B000AF78607B68002B22D1002291
:10025C000121BD4802F051F800220221BA4802F0F7
:10026C004CF800220421B84802F047F8002208217B
:10027C00B54802F042F800221021B34802F03DF8D4
:10028C0000222021B04802F038F801224021AE486B
:10029C0002F033F87B68012B22D101220121AA48FC
:1002AC0002F02BF800220221A74802F026F80022C7
:1002BC000421A54802F021F801220821A24802F0ED
:1002CC001CF801221021A04802F017F8012220216D
:1002DC009D4802F012F8012240219B4802F00DF8D3
:1002EC007B68022B22D100220121974802F005F8ED
:1002FC0000220221944802F000F8012204219248C5
:10030C0001F0FBFF002208218F4801F0F6FF0022CC
:10031C0010218D4801F0F1FF012220218A4801F0C3
:10032C00ECFF00224021884801F0E7FF7B68032B9B
:10033C0022D100220121844801F0DFFF002202219A
:10034C00814801F0DAFF002204217F4801F0D5FF3B
:10035C00002208217C4801F0D0FF012210217A48AC
:10036C0001F0CBFF01222021774801F0C6FF0022CB
:10037C004021754801F0C1FF7B68042B22D101227A
:10038C000121714801F0B9FF002202216E4801F0F1
:10039C00B4FF002204216C4801F0AFFF01220821B8
:1003AC00694801F0AAFF01221021674801F0A5FF5E
:1003BC0000222021644801F0A0FF00224021624865
:1003CC0001F09BFF7B68052B22D1002201215E48A6
:1003DC0001F093FF012202215B4801F08EFF002205
:1003EC000421594801F089FF00220821564801F0E8
:1003FC0084FF01221021544801F07FFF00222021AC
:10040C00514801F07AFF002240214F4801F075FF5E
:10041C007B68062B22D1002201214B4801F06DFF95
:10042C0001220221484801F068FF002204214648BD
:10043C0001F063FF00220821434801F05EFF002217
:10044C001021414801F059FF002220213E4801F0C3
:10045C0054FF002240213C4801F04FFF7B68072BE2
:10046C0022D100220121384801F047FF002202214D
:10047C00354801F042FF00220421334801F03DFFD2
:10048C0001220821304801F038FF012210212E48AA
:10049C0001F033FF012220212B4801F02EFF012215
:1004AC004021294801F029FF7B68082B22D100222A
:1004BC000121254801F021FF00220221224801F0F0
:1004CC001CFF00220421204801F017FF0022082104
:1004DC001D4801F012FF002210211B4801F00DFFF6
:1004EC0000222021184801F008FF00224021164864
:1004FC0001F003FF7B68092B22D100220121124855
:10050C0001F0FBFE002202210F4801F0F6FE002252
:10051C0004210D4801F0F1FE002208210A4801F0E7
:10052C00ECFE01221021084801F0E7FE00222021F8
:10053C00054801F0E2FE00224021034801F0DDFEF7
:10054C0000BF0837BD4680BD000C014080B400AF31
:10055C00064B1B68012B04D1044B00221A600123AB
:10056C0000E000231846BD4680BC704764000020A4
:10057C0080B400AF064B1B68012B04D1044B002246
:10058C001A60012300E000231846BD4680BC70476A
:10059C006800002080B400AF064B1B68012B04D10F
:1005AC00044B00221A60012300E000231846BD46CC
:1005BC0080BC70476C00002080B500AF694B1B6895
:1005CC00694A1360694B1B68664A136002216848CC
:1005DC0001F07CFE03461A46644B1A60614B1A68A4
:1005EC00624B1B689A422FD15E4B1A685E4B1B689C
:1005FC009A4229D15C4B1A685E4B1B689A420FD009
:10060C00594B1B685B4A13605A4B1B68002B1BD160
:10061C00594B4FF4FA721A60584B01221A6013E0CE
:10062C00554B1B68013B544A1360534B1B68002B02
:10063C000AD1514B4FF4FA721A604E4B1B68002BC7
:10064C0002D14E4B01221A604D4B1B684D4A136070
:10065C004D4B1B684A4A13600421454801F036FE95
:10066C0003461A46484B1A60454B1A68464B1B68A2
:10067C009A422FD1424B1A68424B1B689A4229D19D
:10068C00404B1A68414B1B689A420FD03D4B1B687C
:10069C003E4A13603D4B1B68002B1BD1364B4FF46D
:1006AC00FA721A603A4B01221A6013E0324B1B6843
:1006BC00013B314A1360304B1B68002B0AD12E4B87
:1006CC004FF4FA721A60314B1B68002B02D1304B7D
:1006DC0001221A602F4B1B682F4A13602F4B1B688B
:1006EC002C4A13600821224801F0F0FD03461A46FB
:1006FC002A4B1A60274B1A68284B1B689A422FD139
:10070C00244B1A68244B1B689A4229D1224B1A6835
:10071C00234B1B689A420FD01F4B1B68204A136057
:10072C001F4B1B68002B1BD1134B4FF4FA721A6032
:10073C001C4B01221A6013E00F4B1B68013B0E4A45
:10074C0013600D4B1B68002B0AD10B4B4FF4FA7244
:10075C001A60134B1B68002B02D1124B01221A603A
:10076C0000BF80BD04000020080000200000002015
:10077C00000801400C000020300000206400002024
:10078C001400002018000020100000201C00002085
:10079C0068000020240000202800002020000020F9
:1007AC002C0000206C00002080B500AF032001F06D
:1007BC0063F80346002B34D08B4B1B68042B0FD0F3
:1007CC00894B1B68022B0BD0874B1B68052B07D062
:1007DC00854B1B68032B03D0834B1B68012B20D14B
:1007EC00FFF7EAFEFFF7B2FE0346002B15D080217F
:1007FC007E4801F09AFD01F091F97D4B00221A60C0
:10080C007B4B00225A607A4B00229A60784B002274
:10081C00DA60754B0A221A6003E01421032000F001
:10082C00D5FF052001F028F80346002B54D06E4B61
:10083C001B68042B0FD06C4B1B68022B0BD06A4B24
:10084C001B68052B07D0684B1B68032B03D0664B2A
:10085C001B68012B40D1674B1B68013B654A136039
:10086C00654B1B68013B644A1360624B1B68634A0F
:10087C0082FB03129210DB17D31A5D4A13605D4B97
:10088C0019685E4B83FB01239A10CB17D21A1346BF
:10089C009B0013445B00CA1A554B5A60564B1B689D
:1008AC00564A82FB03129210DB17D31A504A9360FC
:1008BC00514B1968514B83FB01239A10CB17D21A59
:1008CC0013469B0013445B00CA1A494BDA604FF481
:1008DC007A71052000F07AFF042000F0CDFF03466A
:1008EC00002B1CD0464B1B68042B02D1444B00221E
:1008FC001A60434B1B681846FFF722FC404B1B68E1
:10090C003B4A52F823301846FFF79AFC3C4B1B68C5
:10091C0001333B4A13609621042000F057FF02205C
:10092C0000F0AAFF0346002B5BD02F4B1B68013B4A
:10093C00042B55D801A252F823F000BF5D09000822
:10094C006509000887090008A9090008CB090008F7
:10095C00254B02221A6044E001F038F8254B0522A1
:10096C001A60254B03221A601F4B03221A6040F6B3
:10097C00B831022000F02AFF33E001F051F81D4B92
:10098C0002221A601C4B02221A60174B04221A60B6
:10099C004FF4FA61022000F019FF22E001F06AF82E
:1009AC00144B03221A60144B05221A600E4B0522BD
:1009BC001A6040F6B831022000F008FF11E001F097
:1009CC0083F80C4B02221A600B4B02221A60064B66
:1009DC0004221A604FF4FA61022000F0F7FE00E0E6
:1009EC0000BF00BF80BD00BF3400002000080140E4
:1009FC007400002084000020880000206766666672
:100A0C007000002080B500AF082000F035FF0346D1
:100A1C00002B05D0FFF7D0FD1421082000F0D6FEE6
:100A2C00092000F029FF0346002B00F06684914B4F
:100A3C001B68063B072B00F25F8401A252F823F0DF
:100A4C00970F0008631000086511000831120008A8
:100A5C006D0A0008CB0A0008A50C0008770E0008E8
:100A6C0001F086F8844B00221A60834B00225A60F6
:100A7C00814B00229A60804B0022DA60FFF766FD02
:100A8C000346002B05D001F049F87A4B0B221A6073
:100A9C000EE0FFF77FFD0346002B05D001F03EF87A
:100AAC00744B01221A6003E01421032000F08EFE27
:100ABC004FF4FA71092000F089FE00F01EBC01F021
:100ACC007BF8FFF743FD0346002B34D001F026F8EA
:100ADC006A4B1B68012B03DC684B02221A6003E093
:100AEC00664B1B68664A1360624B0C221A60654B9E
:100AFC001B68654A82FB03129210DB17D31A5E4AFD
:100B0C001360604B1968604B83FB01239A10CB1761
:100B1C00D21A13469B0013445B00CA1A564B5A60F8
:100B2C00554B00229A60544B0022DA6014210320AA
:100B3C0000F04CFE98E0FFF71BFD0346002B2AD07B
:100B4C0000F0ECFF4D4B1B6801334C4A13604B4BD0
:100B5C001B684D4A82FB03129210DB17D31A464ACC
:100B6C001360464B1968484B83FB01239A10CB1733
:100B7C00D21A13469B0013445B00CA1A3E4B5A60B0
:100B8C003D4B00229A603C4B0022DA60142103207A
:100B9C0000F01CFE68E0FFF7FDFC0346002B5FD065
:100BAC0000F0BCFF354B1B68012B1CDC334B0222C5
:100BBC001A60344B01221A60304B1A68314B1B6897
:100BCC00D31A324A13602D4B1B682D4A13602D4BE0
:100BDC001B682F4A13602D4B1B682E4A1360254B44
:100BEC0006221A6037E0274B01221A60234B1A6841
:100BFC00244B1B68D31A254A1360204B1B68204AD0
:100C0C001360204B1B68224A1360204B1B68214A3F
:100C1C0013601A4B1B681C4A82FB03129210DB17E1
:100C2C00D31A154A1360154B1968174B83FB012314
:100C3C009A10CB17D21A13469B0013445B00CA1AA6
:100C4C000D4B5A600C4B00229A600B4B0022DA6061
:100C5C00084B06221A601421032000F0B7FD03E0B4
:100C6C001421032000F0B2FD4FF4FA71092000F0BA
:100C7C00ADFD42E334000020740000208C00002005
:100C8C0098000020900000206766666694000020A3
:100C9C009C000020A000002000F0B6FFFFF756FCDF
:100CAC000346002B2FD000F039FF9B4B1B68012B08
:100CBC0002DC994B01221A60984B0D221A60984B5A
:100CCC001B68984A82FB03129210DB17D31A964AC0
:100CDC001360934B1968934B83FB01239A10CB172A
:100CEC00D21A13469B0013445B00CA1A8E4B5A60EF
:100CFC008D4B00229A608C4B0022DA601421032069
:100D0C0000F064FDABE0FFF733FC0346002B28D06A
:100D1C00814B1B680133804A13607F4B1B68814AEF
:100D2C0082FB03129210DB17D31A7F4A13607A4BA3
:100D3C0019687C4B83FB01239A10CB17D21A1346EC
:100D4C009B0013445B00CA1A774B5A60764B002207
:100D5C009A60754B0022DA601421032000F036FDF6
:100D6C007DE0FFF717FC0346002B74D000F0D6FE95
:100D7C00694B1B68002B38DC674B01221A606B4BEC
:100D8C001A68654B1B68D31A654A1360674B1B685E
:100D9C00674A1360604B1B68664A1360604B1B68A4
:100DAC00654A13605C4B1B685E4A82FB031292100F
:100DBC00DB17D31A5C4A1360574B1968594B83FBEA
:100DCC0001239A10CB17D21A13469B0013445B00D5
:100DDC00CA1A554B5A60544B00229A60524B00224F
:100DEC00DA604E4B06221A6030E04B4B1A684F4BC0
:100DFC001B689A4218DB4D4B00221A60464B0022AE
:100E0C001A60474B00221A60474B00221A60464B6F
:100E1C0000225A60444B00229A60434B0022DA6055
:100E2C003E4B0B221A6011E03B4B1B68414A13608E
:100E3C003E4B1A68384B1B68D31A394A1360384B2F
:100E4C001B683D4A1360354B06221A60142103209F
:100E5C0000F0BCFC03E01421032000F0B7FC4FF4BD
:100E6C00FA71092000F0B2FC47E200F0F5FEFFF742
:100E7C006DFB0346002B09D000F050FE274B0B22D4
:100E8C001A601421032000F0A1FC78E0FFF770FB3E
:100E9C000346002B28D0224B1B680133204A1360D9
:100EAC001F4B1B681F4A82FB03129210DB17D31ACD
:100EBC001D4A13601A4B19681A4B83FB01239A10B5
:100ECC00CB17D21A13469B0013445B00CA1A164B5D
:100EDC005A60154B00229A60134B0022DA601421E1
:100EEC00032000F073FC4AE0FFF754FB0346002B91
:100EFC0041D00E4B1A68084B1B68D21A084B1B6862
:100F0C009A421BD1044B1B68002B17D000F006FE35
:100F1C00024B06221A6029E09000002034000020C9
:100F2C009400002067666666740000208C00002028
:100F3C00980000209C000020A00000207D4B0B227C
:100F4C001A607D4B00221A607C4B00221A607C4B8D
:100F5C0000221A607B4B00221A607A4B00225A60E6
:100F6C00784B00229A60774B0022DA601421032020
:100F7C0000F02CFC03E01421032000F027FC4FF4BC
:100F8C00FA71092000F022FCB7E100F01FFD6E4B56
:100F9C001B686E4A82FB03129210DB17D31A694A44
:100FAC001360694B1968694B83FB01239A10CB17AB
:100FBC00D21A13469B0013445B00CA1A614B5A6049
:100FCC00634B1B68614A82FB03129210DB17D31A26
:100FDC005C4A93605E4B19685C4B83FB01239A104F
:100FEC00CB17D21A13469B0013445B00CA1A554BFD
:100FFC00DA60554B1B68013B534A1360544B1B681A
:10100C00013B534A1360524B1B68002B06D14C4BCF
:10101C001B684F4A1360474B07221A60FFF7BAFA56
:10102C000346002B11D000F079FD434B00221A60CF
:10103C00424B00221A60424B00221A603D4B0A229E
:10104C001A601421032000F0C1FB4FF47A710920BF
:10105C0000F0BCFB51E100F0E3FC3B4B1B683B4A4E
:10106C0082FB03129210DB17D31A364A1360364BED
:10107C001968364B83FB01239A10CB17D21A1346EF
:10108C009B0013445B00CA1A2E4B5A60314B1B68F1
:10109C002E4A82FB03129210DB17D31A294A936053
:1010AC002C4B1968294B83FB01239A10CB17D21AAE
:1010BC0013469B0013445B00CA1A224BDA60224B86
:1010CC001B68013B204A1360224B1B68013B214AE1
:1010DC0013601D4B1B68002B03D1174B1B681A4A5E
:1010EC0013601C4B1B68002B06D1144B1B68194A50
:1010FC001360104B08221A60FFF74CFA0346002BC2
:10110C0011D000F00BFD0C4B00221A600B4B00228F
:10111C001A600B4B00221A60064B0A221A6014212B
:10112C00032000F053FB4FF47A71092000F04EFBC2
:10113C00E3E000BF340000208C0000209000002071
:10114C0094000020740000209800002067666666FA
:10115C00A00000209C00002000F08CFC684B1B6859
:10116C00684A82FB03129210DB17D31A664A13608B
:10117C00634B1968634B83FB01239A10CB17D21A6C
:10118C0013469B0013445B00CA1A5F4B5A605F4BBB
:10119C001B685C4A82FB03129210DB17D31A5A4A63
:1011AC0093605A4B1968574B83FB01239A10CB174A
:1011BC00D21A13469B0013445B00CA1A524BDA60D6
:1011CC00524B1B68013B514A13604D4B1B68013B52
:1011DC004B4A13604A4B1B68002B06D14C4B1B68C7
:1011EC00474A13604B4B09221A60FFF7D3F90346A9
:1011FC00002B11D000F092FC474B00221A60474B99
:10120C0000221A60424B00221A60424B0A221A60DA
:10121C001421032000F0DAFA4FF47A71092000F05F
:10122C00D5FA6AE000F050FC3D4B1B68354A82FB56
:10123C0003129210DB17D31A334A1360384B196818
:10124C00304B83FB01239A10CB17D21A13469B0009
:10125C0013445B00CA1A2C4B5A602C4B1B68294A4E
:10126C0082FB03129210DB17D31A274A9360274B89
:10127C001968244B83FB01239A10CB17D21A1346FF
:10128C009B0013445B00CA1A1F4BDA60244B1B688B
:10129C00013B234A13601D4B1B68013B1B4A136027
:1012AC001F4B1B68002B0AD11B4B1B68174A136082
:1012BC001A4B1B681A4A1360164B06221A60FFF76A
:1012CC0069F90346002B11D000F028FC124B0022C8
:1012DC001A60124B00221A600D4B00221A600D4B43
:1012EC000A221A601421032000F070FA4FF47A716C
:1012FC00092000F06BFA00E000BF00BF80BD00BF0A
:10130C00A00000206766666674000020980000202C
:10131C0094000020340000208C000020900000205D
:10132C009C00002080B400AF00BFBD4680BC70475D
:10133C0080B487B000AFF860B9607A6000237B613D
:10134C0002E07B6901337B61184A7B691B01134402
:10135C001B68002B02D07B69272BF2D97B69282BC9
:10136C0001D101231CE0114A7B691B011344FA686B
:10137C001A600E4A7B691B0113440433BA681A6065
:10138C000A4A7B691B01134408337A681A60074ABE
:10139C007B691B0113440C3300221A707B69DBB28E
:1013AC0018461C37BD4680BC704700BFA400002007
:1013BC0080B483B000AF7860224A7B681B01134471
:1013CC001B68002B38D01F4A7B681B011344043365
:1013DC001B68002B23D11B4A7B681B0113440C3365
:1013EC001B780133D9B2174A7B681B0113440C33A9
:1013FC000A461A70134A7B681B01134408331B6896
:10140C00002B19D00F4A7B681B01134408331A6850
:10141C000C497B681B010B4404331A600CE0094A2D
:10142C007B681B01134404331B685A1E05497B68F7
:10143C001B010B4404331A6000BF0C37BD4680BC43
:10144C00704700BFA400002080B485B000AF786066
:10145C00164A7B681B0113441B68002B02D1012325
:10146C00FB6001E00023FB60104A7B681B01134406
:10147C0000221A600D4A7B681B01134404330022BE
:10148C001A600A4A7B681B011344083300221A6055
:10149C00064A7B681B0113440C3300221A70FB684C
:1014AC00DBB218461437BD4680BC7047A400002040
:1014BC0080B582B000AF00237B601FE0134A7B68CD
:1014CC001B0113440C331B78002B14D00F4A7B6880
:1014DC001B0113441B6898470C4A7B681B0113447F
:1014EC000C331B78013BD9B2084A7B681B011344AF
:1014FC000C330A461A707B6801337B607B68272BA0
:10150C00DCD900BF00BF0837BD4680BDA400002059
:10151C0080B582B000AF0023FB7106E0FB79184662
:10152C00FFF792FFFB790133FB71FB79272BF5D980
:10153C0000BF00BF0837BD4680BD000080B500AFBE
:10154C0000F0D8FB00F024F8FFF7E2FF00F0A8F859
:10155C0000F05AF80A4801F02FFB0122002109483B
:10156C00FFF7E6FE012200210748FFF7E1FE01220A
:10157C0000210648FFF7DCFEFFF79AFFFCE700BFEF
:10158C0024030020B5070008110A000831130008D5
:10159C0080B590B000AF07F118032822002118463F
:1015AC0001F096FE3B1D00221A605A609A60DA60C8
:1015BC001A610223BB610123BB621023FB6200236F
:1015CC007B6307F11803184600F0C8FE0346002B96
:1015DC0001D000F0F5F80F237B600023BB600023E3
:1015EC00FB6000233B6100237B613B1D00211846FF
:1015FC0001F036F90346002B01D000F0E1F800BFF2
:10160C004037BD4680BD000080B586B000AF07F105
:10161C00080300221A605A609A60DA603B46002286
:10162C001A605A601D4B4FF080421A601B4B41F6FA
:10163C003F725A60194B00229A60184B0922DA60EB
:10164C00164B00221A61154B00229A61134801F0C7
:10165C0063FA0346002B01D000F0B2F84FF480532C
:10166C00BB6007F1080319460C4801F0E1FB034687
:10167C00002B01D000F0A4F800233B6000237B601A
:10168C003B461946054801F0B9FD0346002B01D035
:10169C0000F096F800BF1837BD4680BD240300202B
:1016AC0080B586B000AF07F1080300221A605A60BB
:1016BC009A60DA60284B9B69274A43F004039361D4
:1016CC00254B9B6903F004037B607B68224B9B6971
:1016DC00214A43F0080393611F4B9B6903F00803F5
:1016EC003B603B6800224FF2A0011C4800F005FE55
:1016FC00002247F2FF311A4800F0FFFD0E23BB60B9
:10170C000023FB6000233B6107F1080319461348D3
:10171C0000F060FC4FF2A003BB600123FB600023D0
:10172C003B6102237B6107F1080319460B4800F06B
:10173C0051FC47F2FF33BB600123FB6000233B618C
:10174C0002237B6107F108031946054800F042FCAF
:10175C0000BF1837BD4680BD001002400008014094
:10176C00000C014080B584B000AF7860FEF724FF18
:10177C0000F052F8114B1B68092B05DC0F4B1B6852
:10178C0001330E4A136014E00C4B1B680A2B10D16A
:10179C000023FB600023FB6005E0F868FFF708FE00
:1017AC00FB680133FB60FB68272BF6D9034B002247
:1017BC001A6000BF1037BD4680BD00BF6C0300200F
:1017CC0080B400AF72B600BF00BFFDE780B483B039
:1017DC0000AF786039607B68002B11DB7B68092BCC
:1017EC000EDC0A4A7B68002142F82310084B1B6868
:1017FC003A6892FBF3F207497B6841F8232000E03A
:10180C0000BF0C37BD4680BC704700BF7003002082
:10181C00380000209803002080B483B000AF002370
:10182C007B601CE0124A7B6852F82330002B13DBE0
:10183C000F4A7B6852F823305A1E0D497B6841F8D9
:10184C0023200B4A7B6852F82330002B04DC094A16
:10185C007B68012142F823107B6801337B607B6835
:10186C00092BDFDD00BF00BF0C37BD4680BC7047C5
:10187C00980300207003002080B483B000AF786020
:10188C007B68002B02DB7B68092B02DD4FF0FF33FA
:10189C0003E0044A7B6852F8233018460C37BD46E7
:1018AC0080BC70477003002080B485B000AF154B2E
:1018BC009B69144A43F001039361124B9B6903F03B
:1018CC000103BB60BB680F4BDB690E4A43F08053CE
:1018DC00D3610C4BDB6903F080537B607B680A4B54
:1018EC005B68FB60FB6823F0E063FB60FB6843F024
:1018FC008063FB60044AFB68536000BF1437BD462D
:10190C0080BC7047001002400000014080B584B0DC
:10191C0000AF78607B681B68B3F1804F13D10C4B20
:10192C00DB690B4A43F00103D361094BDB6903F01C
:10193C000103FB60FB68002200211C2000F013FB5C
:10194C001C2000F02CFB00BF1037BD4680BD00BF33
:10195C000010024080B400AF00BFFDE780B400AFC0
:10196C0000BFFDE780B400AF00BFFDE780B400AF5F
:10197C0000BFFDE780B400AF00BFFDE780B400AF4F
:10198C0000BFBD4680BC704780B400AF00BFBD46F1
:10199C0080BC704780B400AF00BFBD4680BC7047B0
:1019AC0080B500AF00F0ECF900BF80BD80B500AF92
:1019BC00024801F04DF900BF80BD00BF2403002098
:1019CC0080B400AF00BFBD4680BC704780B500AF8F
:1019DC0000228021114800F090FC00224FF480710D
:1019EC000E4800F08AFC01224FF400710B4800F005
:1019FC0084FC01224FF48051084800F07EFC002248
:101A0C004FF40051054800F078FC00224FF480415F
:101A1C00024800F072FC00BF80BD00BF000C01400A
:101A2C0080B500AF00228021114800F066FC012235
:101A3C004FF480710E4800F060FC00224FF40071EE
:101A4C000B4800F05AFC01224FF48051084800F07A
:101A5C0054FC00224FF40051054800F04EFC0022CB
:101A6C004FF48041024800F048FC00BF80BD00BF2D
:101A7C00000C014080B500AF01228021114800F01C
:101A8C003CFC00224FF480710E4800F036FC002222
:101A9C004FF400710B4800F030FC00224FF48051E1
:101AAC00084800F02AFC00224FF40051054800F0D1
:101ABC0024FC01224FF48041024800F01EFC00BFC0
:101ACC0080BD00BF000C014080B500AF0122802119
:101ADC00114800F012FC00224FF480710E4800F007
:101AEC000CFC00224FF400710B4800F006FC0022A5
:101AFC004FF48051084800F000FC01224FF40051D3
:101B0C00054800F0FAFB00224FF48041024800F037
:101B1C00F4FB00BF80BD00BF000C014080B500AFDE
:101B2C0000228021114800F0E8FB00224FF4807164
:101B3C000E4800F0E2FB00224FF400710B4800F05D
:101B4C00DCFB00224FF48051084800F0D6FB002249
:101B5C004FF40051054800F0D0FB00224FF48041B7
:101B6C00024800F0CAFB00BF80BD00BF000C014062
:101B7C0080B500AF80210F4800F0D7FB4FF4807187
:101B8C000C4800F0D2FB4FF400710A4800F0CDFB7A
:101B9C004FF48051074800F0C8FB4FF40051054842
:101BAC0000F0C3FB4FF48041024800F0BEFB00BFC5
:101BBC0080BD00BF000C014080B500AF00224FF487
:101BCC008071104800F099FB00224FF400710D4811
:101BDC0000F093FB00224FF400510A4800F08DFBFB
:101BEC0000224FF48041074800F087FB8021054814
:101BFC0000F09BFB4FF48051024800F096FB00BFB5
:101C0C0080BD00BF000C014080B500AF00228021D8
:101C1C00104800F072FB00224FF400710D4800F0E8
:101C2C006CFB00224FF480510A4800F066FB002246
:101C3C004FF48041074800F060FB4FF48071054879
:101C4C0000F073FB4FF40051024800F06EFB00BF34
:101C5C0080BD00BF000C014080B500AF0022802188
:101C6C00104800F04AFB00224FF480710D4800F040
:101C7C0044FB00224FF480510A4800F03EFB002246
:101C8C004FF40051074800F038FB4FF40071054841
:101C9C0000F04BFB4FF48041024800F046FB00BFC4
:101CAC0080BD00BF000C0140FFF78AFE0B480C49B9
:101CBC000C4A002302E0D458C4500433C4188C429C
:101CCC00F9D3094A094C002301E013600432A24203
:101CDC00FBD301F005FBFFF731FC7047000000203F
:101CEC00480000207833000848000020C40300207E
:101CFC00FEE7000080B500AF084B1B68074A43F0B5
:101D0C0010031360032000F023F90F2000F008F8F3
:101D1C00FFF7CAFD0023184680BD00BF002002401B
:101D2C0080B582B000AF7860124B1A68124B1B78EA
:101D3C0019464FF47A73B3FBF1F3B2FBF3F3184685
:101D4C0000F03BF90346002B01D001230EE07B6829
:101D5C000F2B0AD8002279684FF0FF3000F003F9FE
:101D6C00064A7B681360002300E0012318460837FD
:101D7C00BD4680BD3C0000204400002040000020F7
:101D8C0080B400AF054B1B781A46054B1B681344F7
:101D9C00034A136000BFBD4680BC7047440000205E
:101DAC00C003002080B400AF024B1B681846BD4630
:101DBC0080BC7047C003002080B485B000AF786051
:101DCC007B6803F00703FB600C4BDB68BB60BA68F5
:101DDC004FF6FF031340BB60FB681A02BB6813434A
:101DEC0043F0BF6343F40033BB60044ABB68D36069
:101DFC0000BF1437BD4680BC704700BF00ED00E04B
:101E0C0080B400AF044BDB681B0A03F007031846D1
:101E1C00BD4680BC704700BF00ED00E080B483B0CD
:101E2C0000AF0346FB7197F90730002B0BDBFB79F6
:101E3C0003F01F02064997F907305B09012000FAED
:101E4C0002F241F8232000BF0C37BD4680BC70471E
:101E5C0000E100E080B483B000AF03463960FB7151
:101E6C0097F90730002B0ADB3B68DAB20C4997F97B
:101E7C0007301201D2B20B4483F800230AE03B680E
:101E8C00DAB20849FB7903F00F03043B1201D2B21A
:101E9C000B441A7600BF0C37BD4680BC704700BFA0
:101EAC0000E100E000ED00E080B489B000AFF86024
:101EBC00B9607A60FB6803F00703FB61FB69C3F14F
:101ECC000703042B28BF0423BB61FB690433062BD7
:101EDC0002D9FB69033B00E000237B614FF0FF322A
:101EEC00BB6902FA03F3DA43BB681A407B699A4078
:101EFC004FF0FF317B6901FA03F3D9437B680B4048
:101F0C00134318462437BD4680BC704780B582B059
:101F1C0000AF78607B68013BB3F1807F01D3012374
:101F2C000FE00A4A7B68013B53600F214FF0FF30F2
:101F3C00FFF790FF054B00229A60044B07221A60B2
:101F4C00002318460837BD4680BD00BF10E000E0F6
:101F5C0080B582B000AF78607868FFF72DFF00BFC6
:101F6C000837BD4680BD80B586B000AF0346B9606A
:101F7C007A60FB7300237B61FFF742FF78617A681C
:101F8C00B9687869FFF790FF024697F90F30114650
:101F9C001846FFF75FFF00BF1837BD4680BD80B500
:101FAC0082B000AF0346FB7197F907301846FFF774
:101FBC0035FF00BF0837BD4680BD80B582B000AF8D
:101FCC0078607868FFF7A2FF034618460837BD46CD
:101FDC0080BD000080B48BB000AF78603960002306
:101FEC007B6200233B6261E101227B6A02FA03F30C
:101FFC00FB613B681B68FA691340BB61BA69FB69FA
:10200C009A4240F050813B685B68974A93425ED09D
:10201C00954A934275D8954A934258D0934A934225
:10202C006FD8934A934252D0914A934269D8914ABD
:10203C0093424CD08F4A934263D88F4A934246D0F6
:10204C008D4A93425DD8122B2AD8122B59D801A253
:10205C0052F823F0DB200008B5200008C720000848
:10206C00092100080F2100080F2100080F2100088A
:10207C000F2100080F2100080F2100080F21000874
:10208C000F2100080F2100080F2100080F21000864
:10209C000F2100080F210008BD200008D1200008E6
:1020AC00764A934213D02CE03B68DB683B6229E014
:1020BC003B68DB6804333B6224E03B68DB68083335
:1020CC003B621FE03B68DB680C333B621AE03B6809
:1020DC009B68002B02D104233B6213E03B689B6896
:1020EC00012B05D108233B627B68FA691A6109E070
:1020FC0008233B627B68FA695A6103E000233B6268
:10210C0000E000BFBB69FF2B01D87B6801E07B6856
:10211C0004337B61BB69FF2B02D87B6A9B0002E016
:10212C007B6A083B9B003B617B691A680F213B690A
:10213C0001FA03F3DB431A40396A3B6901FA03F3F2
:10214C001A437B691A603B685B6803F08053002B71
:10215C0000F0A9804A4B9B69494A43F00103936103
:10216C00474B9B6903F00103BB60BB68454A7B6A24
:10217C009B08023352F82330FB607B6A03F00303A5
:10218C009B000F2202FA03F3DB43FA681340FB6057
:10219C007B683D4A93420DD07B683C4A934207D002
:1021AC007B683B4A934201D1022304E0032302E003
:1021BC00012300E000237A6A02F0030292009340AC
:1021CC00FA681343FB602F497B6A9B080233FA6859
:1021DC0041F823203B685B6803F48013002B06D086
:1021EC002C4B9A682B49BB6913438B6006E0294B37
:1021FC009A68BB69DB43274913408B603B685B687B
:10220C0003F40013002B06D0224BDA682149BB697A
:10221C001343CB6006E01F4BDA68BB69DB431D49F7
:10222C001340CB603B685B6803F40033002B06D093
:10223C00184B5A681749BB6913434B6006E0154BA2
:10224C005A68BB69DB43134913404B603B685B68BE
:10225C0003F48033002B1FD00E4B1A680D49BB6959
:10226C0013430B601FE000BF000032100000311060
:10227C0000002210000021100000121000001110AC
:10228C00001002400000014000080140000C014019
:10229C0000100140000401400B4B1A68BB69DB4382
:1022AC00094913400B607B6A01337B623B681A68F7
:1022BC007B6A22FA03F3002B7FF496AE00BF00BFBB
:1022CC002C37BD4680BC70470004014080B485B0FB
:1022DC0000AF78600B467B807B689A687B881340E4
:1022EC00002B02D00123FB7301E00023FB73FB7B6B
:1022FC0018461437BD4680BC704780B483B000AF1D
:10230C0078600B467B8013467B707B78002B03D068
:10231C007A887B681A6103E07B881A047B681A61EF
:10232C0000BF0C37BD4680BC704780B485B000AF91
:10233C0078600B467B807B68DB68FB607A88FB6887
:10234C0013401A04FB68D9437B880B401A437B6803
:10235C001A6100BF1437BD4680BC704780B586B08B
:10236C0000AF78607B68002B01D1012372E27B689F
:10237C001B6803F00103002B00F08780924B5B6815
:10238C0003F00C03042B0CD08F4B5B6803F00C0395
:10239C00082B12D18C4B5B6803F48033B3F5803F70
:1023AC000BD1894B1B6803F40033002B6CD07B687A
:1023BC005B68002B68D101234CE27B685B68B3F54A
:1023CC00803F06D1804B1B687F4A43F480331360F7
:1023DC002EE07B685B68002B0CD17B4B1B687A4A28
:1023EC0023F480331360784B1B68774A23F48023E3
:1023FC0013601DE07B685B68B3F5A02F0CD1724BAA
:10240C001B68714A43F4802313606F4B1B686E4A40
:10241C0043F4803313600BE06B4B1B686A4A23F464
:10242C0080331360684B1B68674A23F48023136066
:10243C007B685B68002B13D0FFF7B4FC386108E0B5
:10244C00FFF7B0FC02463B69D31A642B01D9032376
:10245C0000E25D4B1B6803F40033002BF0D014E05A
:10246C00FFF7A0FC386108E0FFF79CFC02463B69D3
:10247C00D31A642B01D90323ECE1534B1B6803F4EF
:10248C000033002BF0D100E000BF7B681B6803F029
:10249C000203002B63D04C4B5B6803F00C03002B46
:1024AC000BD0494B5B6803F00C03082B1CD1464B3B
:1024BC005B6803F48033002B16D1434B1B6803F08D
:1024CC000203002B05D07B681B69012B01D0012373
:1024DC00C0E13D4B1B6823F0F8027B685B69DB00B5
:1024EC00394913430B603AE07B681B69002B20D001
:1024FC00364B01221A60FFF755FC386108E0FFF7F4
:10250C0051FC02463B69D31A022B01D90323A1E1EA
:10251C002D4B1B6803F00203002BF0D02A4B1B68D9
:10252C0023F0F8027B685B69DB00274913430B60DF
:10253C0015E0264B00221A60FFF734FC386108E0E6
:10254C00FFF730FC02463B69D31A022B01D9032357
:10255C0080E11D4B1B6803F00203002BF0D17B685C
:10256C001B6803F00803002B3AD07B689B69002B97
:10257C0019D0174B01221A60FFF714FC386108E0E0
:10258C00FFF710FC02463B69D31A022B01D9032337
:10259C0060E10D4B5B6A03F00203002BF0D00120CD
:1025AC0000F09CFA1CE00A4B00221A60FFF7FAFBC1
:1025BC0038610FE0FFF7F6FB02463B69D31A022B9A
:1025CC0008D9032346E100BF00100240000042423C
:1025DC0080044242924B5B6A03F00203002BE9D168
:1025EC007B681B6803F00403002B00F0A68000231B
:1025FC00FB758B4BDB6903F08053002B0DD1884BA3
:10260C00DB69874A43F08053D361854BDB6903F068
:10261C008053BB60BB680123FB75824B1B6803F4C2
:10262C008073002B18D17F4B1B687E4A43F4807358
:10263C001360FFF7B7FB386108E0FFF7B3FB024606
:10264C003B69D31A642B01D9032303E1754B1B6837
:10265C0003F48073002BF0D07B68DB68012B06D170
:10266C006F4B1B6A6E4A43F0010313622DE07B68CB
:10267C00DB68002B0CD16A4B1B6A694A23F00103FF
:10268C001362674B1B6A664A23F0040313621CE057
:10269C007B68DB68052B0CD1614B1B6A604A43F0ED
:1026AC00040313625E4B1B6A5D4A43F00103136221
:1026BC000BE05B4B1B6A5A4A23F001031362584B25
:1026CC001B6A574A23F0040313627B68DB68002BF8
:1026DC0015D0FFF767FB38610AE0FFF763FB024692
:1026EC003B69D31A41F28832934201D90323B1E0FA
:1026FC004B4B1B6A03F00203002BEED014E0FFF7E8
:10270C0051FB38610AE0FFF74DFB02463B69D31AD7
:10271C0041F28832934201D903239BE0404B1B6A60
:10272C0003F00203002BEED1FB7D012B05D13C4BBA
:10273C00DB693B4A23F08053D3617B68DB69002B58
:10274C0000F08780364B5B6803F00C03082B61D0DC
:10275C007B68DB69022B46D1334B00221A60FFF7F2
:10276C0021FB386108E0FFF71DFB02463B69D31AD9
:10277C00022B01D903236DE0294B1B6803F0007376
:10278C00002BF0D17B681B6AB3F5803F08D1244B3A
:10279C005B6823F400327B689B68214913434B60D0
:1027AC001F4B5B6823F474127B68196A7B685B6A45
:1027BC000B431B4913434B601B4B01221A60FFF761
:1027CC00F1FA386108E0FFF7EDFA02463B69D31ADB
:1027DC00022B01D903233DE0114B1B6803F000735E
:1027EC00002BF0D035E0104B00221A60FFF7DAFA1C
:1027FC00386108E0FFF7D6FA02463B69D31A022B80
:10280C0001D9032326E0064B1B6803F00073002B51
:10281C00F0D11EE07B68DB69012B07D1012319E0A5
:10282C000010024000700040600042420B4B5B689D
:10283C00FB60FB6803F480327B681B6A9A4206D10A
:10284C00FB6803F470127B685B6A9A4201D0012327
:10285C0000E0002318461837BD4680BD001002402A
:10286C0080B584B000AF786039607B68002B01D1F3
:10287C000123D0E06A4B1B6803F007033A689A42C5
:10288C0010D9674B1B6823F0070265493B6813435B
:10289C000B60634B1B6803F007033A689A4201D044
:1028AC000123B8E07B681B6803F00203002B20D0E7
:1028BC007B681B6803F00403002B05D0594B5B6845
:1028CC00584A43F4E06353607B681B6803F00803C9
:1028DC00002B05D0534B5B68524A43F46053536052
:1028EC00504B5B6823F0F0027B689B684D491343A7
:1028FC004B607B681B6803F00103002B40D07B68A6
:10290C005B68012B07D1474B1B6803F40033002B8A
:10291C0015D101237FE07B685B68022B07D1414B0B
:10292C001B6803F00073002B09D1012373E03D4BAE
:10293C001B6803F00203002B01D101236BE0394B20
:10294C005B6823F003027B685B68364913434B607A
:10295C00FFF728FAF8600AE0FFF724FA0246FB6852
:10296C00D31A41F28832934201D9032353E02D4B01
:10297C005B6803F00C027B685B689B009A42EBD1AE
:10298C00274B1B6803F007033A689A4210D2244B7A
:10299C001B6823F0070222493B6813430B60204B52
:1029AC001B6803F007033A689A4201D0012332E016
:1029BC007B681B6803F00403002B08D0194B5B6881
:1029CC0023F4E0627B68DB68164913434B607B6839
:1029DC001B6803F00803002B09D0124B5B6823F42F
:1029EC0060527B681B69DB000E4913434B6000F09F
:1029FC0021F802460B4B5B681B0903F00F030A49D5
:102A0C00CB5C22FA03F3094A1360094B1B68184686
:102A1C00FFF786F9002318461037BD4680BD00BF6E
:102A2C0000200240001002404C3300083C00002003
:102A3C004000002080B487B000AF0023FB6000236F
:102A4C00BB6000237B6100237B6000233B611E4B3A
:102A5C005B68FB60FB6803F00C03042B02D0082BB3
:102A6C0003D027E0194B3B6127E0FB689B0C03F07C
:102A7C000F03174AD35C7B60FB6803F48033002B95
:102A8C0010D0114B5B685B0C03F00103114AD35C53
:102A9C00BB607B680D4A03FB02F2BB68B2FBF3F32D
:102AAC007B6104E07B680C4A02FB03F37B617B696E
:102ABC003B6102E0054B3B6100BF3B6918461C378C
:102ACC00BD4680BC704700BF0010024000127A0067
:102ADC005C3300086C33000800093D0080B485B0FD
:102AEC0000AF78600A4B1B680A4AA2FB03235B0AFF
:102AFC007A6802FB03F3FB6000BFFB685A1EFA60A6
:102B0C00002BF9D100BF00BF1437BD4680BC704705
:102B1C003C000020D34D621080B582B000AF7860CD
:102B2C007B68002B01D1012341E07B6893F83D3099
:102B3C00DBB2002B06D17B68002283F83C2078683E
:102B4C00FEF7E4FE7B68022283F83D207B681A685E
:102B5C007B6804331946104600F056FA7B68012254
:102B6C0083F846207B68012283F83E207B68012293
:102B7C0083F83F207B68012283F840207B68012288
:102B8C0083F841207B68012283F842207B68012274
:102B9C0083F843207B68012283F844207B68012260
:102BAC0083F845207B68012283F83D2000231846DA
:102BBC000837BD4680BD000080B485B000AF78609A
:102BCC007B6893F83D30DBB2012B01D0012335E05B
:102BDC007B68022283F83D207B681B68DA687B687F
:102BEC001B6842F00102DA607B681B68164A93424C
:102BFC0009D07B681B68B3F1804F04D07B681B68DD
:102C0C00124A934211D17B681B689B6803F007033F
:102C1C00FB60FB68062B10D07B681B681A687B680E
:102C2C001B6842F001021A6007E07B681B681A6897
:102C3C007B681B6842F001021A60002318461437A7
:102C4C00BD4680BC704700BF002C01400004004012
:102C5C0080B584B000AF78607B681B68DB68FB6074
:102C6C007B681B681B69BB60BB6803F00203002B0D
:102C7C0020D0FB6803F00203002B1BD07B681B6881
:102C8C006FF002021A617B6801221A777B681B685D
:102C9C009B6903F00303002B03D0786800F098F9CC
:102CAC0005E0786800F08BF9786800F09AF97B6899
:102CBC0000221A77BB6803F00403002B20D0FB68BA
:102CCC0003F00403002B1BD07B681B686FF004021D
:102CDC001A617B6802221A777B681B689B6903F474
:102CEC004073002B03D0786800F072F905E0786827
:102CFC0000F065F9786800F074F97B6800221A77A7
:102D0C00BB6803F00803002B20D0FB6803F008031A
:102D1C00002B1BD07B681B686FF008021A617B6864
:102D2C0004221A777B681B68DB6903F00303002B12
:102D3C0003D0786800F04CF905E0786800F03FF9B2
:102D4C00786800F04EF97B6800221A77BB6803F0B4
:102D5C001003002B20D0FB6803F01003002B1BD0BA
:102D6C007B681B686FF010021A617B6808221A7767
:102D7C007B681B68DB6903F44073002B03D0786815
:102D8C0000F026F905E0786800F019F9786800F091
:102D9C0028F97B6800221A77BB6803F00103002B2B
:102DAC000CD0FB6803F00103002B07D07B681B6879
:102DBC006FF001021A617868FEF7D4FCBB6803F06F
:102DCC008003002B0CD0FB6803F08003002B07D092
:102DDC007B681B686FF080021A61786800F06FFAEC
:102DEC00BB6803F04003002B0CD0FB6803F04003DE
:102DFC00002B07D07B681B686FF040021A61786863
:102E0C0000F0F8F8BB6803F02003002B0CD0FB6833
:102E1C0003F02003002B07D07B681B686FF02002A7
:102E2C001A61786800F042FA00BF1037BD4680BDC9
:102E3C0080B584B000AF786039600023FB737B6889
:102E4C0093F83C30012B01D10223B4E07B680122C2
:102E5C0083F83C207B68022283F83D207B681B684A
:102E6C009B68BB60BB6823F07703BB60BB6823F433
:102E7C007F43BB607B681B68BA689A603B681B68C1
:102E8C00B3F5005F3ED0B3F5005F00F28780B3F579
:102E9C00805F00F08680B3F5805F7FD8702B1AD0EE
:102EAC00702B7BD8602B50D0602B77D8502B3CD01C
:102EBC00502B73D8402B58D0402B6FD8302B64D06C
:102ECC00302B6BD8202B60D0202B67D8002B5CD0FC
:102EDC00102B5AD062E07B6818683B6899683B6895
:102EEC005A683B68DB6800F06AF97B681B689B6872
:102EFC00BB60BB6843F07703BB607B681B68BA6838
:102F0C009A604FE07B6818683B6899683B685A6820
:102F1C003B68DB6800F053F97B681B689A687B6838
:102F2C001B6842F480429A603CE07B6818683B68FE
:102F3C0059683B68DB681A4600F0CAF87B681B6866
:102F4C005021184600F021F92CE07B6818683B688A
:102F5C0059683B68DB681A4600F0E8F87B681B6828
:102F6C006021184600F011F91CE07B6818683B687A
:102F7C0059683B68DB681A4600F0AAF87B681B6846
:102F8C004021184600F001F90CE07B681A683B6898
:102F9C001B681946104600F0F8F803E00123FB7398
:102FAC0000E000BF7B68012283F83D207B68002293
:102FBC0083F83C20FB7B18461037BD4680BD80B49F
:102FCC0083B000AF786000BF0C37BD4680BC704743
:102FDC0080B483B000AF786000BF0C37BD4680BCB6
:102FEC00704780B483B000AF786000BF0C37BD462B
:102FFC0080BC704780B483B000AF786000BF0C37E2
:10300C00BD4680BC7047000080B485B000AF7860CE
:10301C0039607B681B68FB607B682B4A934207D046
:10302C007B68B3F1804F03D07B68284A934208D168
:10303C00FB6823F07003FB603B685B68FA68134322
:10304C00FB607B68204A934207D07B68B3F1804FCA
:10305C0003D07B681D4A934208D1FB6823F440736C
:10306C00FB603B68DB68FA681343FB60FB6823F08A
:10307C0080023B685B691343FB607B68FA681A60EB
:10308C003B689A687B68DA623B681A687B689A626C
:10309C007B680D4A934203D13B681A697B681A63BB
:1030AC007B6801225A617B681B6903F00103002BCA
:1030BC0005D07B681B6923F001027B681A6100BF95
:1030CC001437BD4680BC7047002C01400004004002
:1030DC0080B487B000AFF860B9607A60FB681B6A97
:1030EC007B61FB681B6A23F00102FB681A62FB68B8
:1030FC009B693B613B6923F0F0033B617B681B01DF
:10310C003A6913433B617B6923F00A037B617A695B
:10311C00BB6813437B61FB683A699A61FB687A6907
:10312C001A6200BF1C37BD4680BC704780B487B0A4
:10313C0000AFF860B9607A60FB681B6A7B61FB6862
:10314C001B6A23F01002FB681A62FB689B693B61E7
:10315C003B6923F470433B617B681B033A6913435F
:10316C003B617B6923F0A0037B61BB681B017A691F
:10317C0013437B61FB683A699A61FB687A691A624E
:10318C0000BF1C37BD4680BC704780B485B000AF13
:10319C00786039607B689B68FB60FB6823F0700388
:1031AC00FB603A68FB68134343F00703FB607B68E2
:1031BC00FA689A6000BF1437BD4680BC704780B473
:1031CC0087B000AFF860B9607A603B60FB689B68C1
:1031DC007B617B6923F47F437B613B681A027B68CC
:1031EC001A43BB6813437A6913437B61FB687A69A2
:1031FC009A6000BF1C37BD4680BC704780B485B058
:10320C0000AF786039607B6893F83C30012B01D1BA
:10321C00022341E07B68012283F83C207B68022278
:10322C0083F83D207B681B685B68FB607B681B68D0
:10323C009B68BB60FB6823F07003FB603B681B68FA
:10324C00FA681343FB607B681B68FA685A607B68FA
:10325C001B68144A934209D07B681B68B3F1804FFA
:10326C0004D07B681B68104A93420CD1BB6823F0D6
:10327C008003BB603B685B68BA681343BB607B68C8
:10328C001B68BA689A607B68012283F83D207B68D2
:10329C00002283F83C20002318461437BD4680BC1E
:1032AC00704700BF002C01400004004080B483B084
:1032BC0000AF786000BF0C37BD4680BC704780B44F
:1032CC0083B000AF786000BF0C37BD4680BC704740
:1032DC0003460244934200D1704703F8011BF9E7FF
:1032EC0070B500260C4D0D4C641BA410A64209D1E0
:1032FC0000F01AF800260A4D0A4C641BA410A642D2
:10330C0005D170BD55F8043B98470136EEE755F8EA
:10331C00043B98470136F2E770330008703300081D
:10332C007033000874330008F8B500BFF8BC08BC53
:10333C009E467047F8B500BFF8BC08BC9E46704767
:10334C000000000000000000010203040607080949
:10335C0002030405060708090A0B0C0D0E0F1010CA
:04336C00010200005A
:04337000310100081F
:043374000D0100083F
:103378000100000001000000010000000100000041
:103388000100000001000000010000000100000031
:103398000100000001000000010000000100000021
:1033A80032000000010000000A00000000127A004C
:0833B8001000000001000000FC
:0400000508001CB51E
:00000001FF
